{
  "contractName": "BakeryFlashswap",
  "abi": [
    {
      "inputs": [
        {
          "internalType": "address",
          "name": "WETH_",
          "type": "address"
        },
        {
          "internalType": "address",
          "name": "UNISWAP_FACTORY_",
          "type": "address"
        }
      ],
      "stateMutability": "nonpayable",
      "type": "constructor"
    },
    {
      "anonymous": false,
      "inputs": [
        {
          "indexed": false,
          "internalType": "string",
          "name": "message",
          "type": "string"
        },
        {
          "indexed": false,
          "internalType": "uint256",
          "name": "val",
          "type": "uint256"
        }
      ],
      "name": "log",
      "type": "event"
    },
    {
      "anonymous": false,
      "inputs": [
        {
          "indexed": false,
          "internalType": "string",
          "name": "message",
          "type": "string"
        },
        {
          "indexed": false,
          "internalType": "address[]",
          "name": "path",
          "type": "address[]"
        }
      ],
      "name": "swaps",
      "type": "event"
    },
    {
      "inputs": [
        {
          "internalType": "address",
          "name": "_tokenBorrow",
          "type": "address"
        }
      ],
      "name": "getTokenPair",
      "outputs": [
        {
          "internalType": "address",
          "name": "",
          "type": "address"
        }
      ],
      "stateMutability": "view",
      "type": "function"
    },
    {
      "inputs": [
        {
          "internalType": "address",
          "name": "_tokenBorrow",
          "type": "address"
        }
      ],
      "name": "setTokenBorrow",
      "outputs": [
        {
          "internalType": "address",
          "name": "",
          "type": "address"
        }
      ],
      "stateMutability": "nonpayable",
      "type": "function"
    },
    {
      "inputs": [
        {
          "internalType": "address",
          "name": "_tokenBorrow",
          "type": "address"
        },
        {
          "internalType": "uint256",
          "name": "amount",
          "type": "uint256"
        },
        {
          "internalType": "address[]",
          "name": "path1",
          "type": "address[]"
        },
        {
          "internalType": "address[]",
          "name": "path2",
          "type": "address[]"
        },
        {
          "internalType": "uint256",
          "name": "tokenToBorrow",
          "type": "uint256"
        }
      ],
      "name": "initFlashloan",
      "outputs": [],
      "stateMutability": "nonpayable",
      "type": "function"
    },
    {
      "inputs": [
        {
          "internalType": "address",
          "name": "_sender",
          "type": "address"
        },
        {
          "internalType": "uint256",
          "name": "_amount0",
          "type": "uint256"
        },
        {
          "internalType": "uint256",
          "name": "_amount1",
          "type": "uint256"
        },
        {
          "internalType": "bytes",
          "name": "_data",
          "type": "bytes"
        }
      ],
      "name": "uniswapV2Call",
      "outputs": [],
      "stateMutability": "nonpayable",
      "type": "function"
    },
    {
      "inputs": [],
      "name": "withdrawals",
      "outputs": [
        {
          "internalType": "bool",
          "name": "",
          "type": "bool"
        }
      ],
      "stateMutability": "nonpayable",
      "type": "function"
    }
  ],
  "bytecode": "0x60e06040527310ed43c718714eb63d5aa57b78b54704e256024e6000806101000a81548173ffffffffffffffffffffffffffffffffffffffff021916908373ffffffffffffffffffffffffffffffffffffffff1602179055503480156200006557600080fd5b5060405162002c9e38038062002c9e83398181016040528101906200008b91906200014f565b8173ffffffffffffffffffffffffffffffffffffffff1660808173ffffffffffffffffffffffffffffffffffffffff1660601b815250508073ffffffffffffffffffffffffffffffffffffffff1660a08173ffffffffffffffffffffffffffffffffffffffff1660601b815250503373ffffffffffffffffffffffffffffffffffffffff1660c08173ffffffffffffffffffffffffffffffffffffffff1660601b815250505050620001e9565b6000815190506200014981620001cf565b92915050565b60008060408385031215620001695762000168620001ca565b5b6000620001798582860162000138565b92505060206200018c8582860162000138565b9150509250929050565b6000620001a382620001aa565b9050919050565b600073ffffffffffffffffffffffffffffffffffffffff82169050919050565b600080fd5b620001da8162000196565b8114620001e657600080fd5b50565b60805160601c60a05160601c60c05160601c612a366200026860003960008181611551015261167b01526000818161021a0152818161105a0152611713015260008181610784015281816109ca01528181610f2801528181611097015281816113a7015281816115940152818161163f01526117500152612a366000f3fe608060405234801561001057600080fd5b50600436106100575760003560e01c806310d1e85c1461005c5780637b58e4cf1461007857806388cf78ba146100a8578063ade0e93e146100c4578063b1aecc8e146100e2575b600080fd5b61007660048036038101906100719190611b60565b610112565b005b610092600480360381019061008d91906119ab565b610fe9565b60405161009f9190611fa6565b60405180910390f35b6100c260048036038101906100bd9190611aa4565b611056565b005b6100cc611536565b6040516100d9919061206a565b60405180910390f35b6100fc60048036038101906100f791906119ab565b61170f565b6040516101099190611fa6565b60405180910390f35b60003373ffffffffffffffffffffffffffffffffffffffff16630dfe16816040518163ffffffff1660e01b815260040160206040518083038186803b15801561015a57600080fd5b505afa15801561016e573d6000803e3d6000fd5b505050506040513d601f19601f8201168201806040525081019061019291906119d8565b905060003373ffffffffffffffffffffffffffffffffffffffff1663d21220a76040518163ffffffff1660e01b815260040160206040518083038186803b1580156101dc57600080fd5b505afa1580156101f0573d6000803e3d6000fd5b505050506040513d601f19601f8201168201806040525081019061021491906119d8565b905060007f000000000000000000000000000000000000000000000000000000000000000073ffffffffffffffffffffffffffffffffffffffff1663e6a4390584846040518363ffffffff1660e01b8152600401610273929190611fc1565b60206040518083038186803b15801561028b57600080fd5b505afa15801561029f573d6000803e3d6000fd5b505050506040513d601f19601f820116820180604052508101906102c391906119d8565b905060008173ffffffffffffffffffffffffffffffffffffffff163373ffffffffffffffffffffffffffffffffffffffff1614610335576040517f08c379a000000000000000000000000000000000000000000000000000000000815260040161032c906120da565b60405180910390fd5b3073ffffffffffffffffffffffffffffffffffffffff168973ffffffffffffffffffffffffffffffffffffffff16146103a3576040517f08c379a000000000000000000000000000000000000000000000000000000000815260040161039a906120ba565b60405180910390fd5b60008060008089898101906103b89190611a05565b93509350935093507f7d79ea53d9caec094f6d6d93728cc3e9d484064381420245bf4b550d95fc60fd826040516103ef9190612128565b60405180910390a17f7d79ea53d9caec094f6d6d93728cc3e9d484064381420245bf4b550d95fc60fd816040516104269190612085565b60405180910390a1600082600081518110610444576104436126b5565b5b602002602001015173ffffffffffffffffffffffffffffffffffffffff166370a08231306040518263ffffffff1660e01b81526004016104849190611fa6565b60206040518083038186803b15801561049c57600080fd5b505afa1580156104b0573d6000803e3d6000fd5b505050506040513d601f19601f820116820180604052508101906104d49190611c15565b90507fb60e72ccf6d57ab53eb84d7e94a9545806ed7f93c4d5673f11a64f03471e584e816040516105059190612215565b60405180910390a160008d905060008d90508460008151811061052b5761052a6126b5565b5b602002602001015173ffffffffffffffffffffffffffffffffffffffff1663095ea7b360008054906101000a900473ffffffffffffffffffffffffffffffffffffffff16846040518363ffffffff1660e01b815260040161058d929190611fea565b602060405180830381600087803b1580156105a757600080fd5b505af11580156105bb573d6000803e3d6000fd5b505050506040513d601f19601f820116820180604052508101906105df9190611be8565b507fb60e72ccf6d57ab53eb84d7e94a9545806ed7f93c4d5673f11a64f03471e584e85600081518110610615576106146126b5565b5b602002602001015173ffffffffffffffffffffffffffffffffffffffff1663dd62ed3e3060008054906101000a900473ffffffffffffffffffffffffffffffffffffffff166040518363ffffffff1660e01b8152600401610677929190611fc1565b60206040518083038186803b15801561068f57600080fd5b505afa1580156106a3573d6000803e3d6000fd5b505050506040513d601f19601f820116820180604052508101906106c79190611c15565b6040516106d4919061229f565b60405180910390a16000610708426106ec91906124a6565b905060008054906101000a900473ffffffffffffffffffffffffffffffffffffffff1673ffffffffffffffffffffffffffffffffffffffff16635c11d7958460008930866040518663ffffffff1660e01b815260040161075095949392919061231b565b600060405180830381600087803b15801561076a57600080fd5b505af115801561077e573d6000803e3d6000fd5b505050507f000000000000000000000000000000000000000000000000000000000000000073ffffffffffffffffffffffffffffffffffffffff16856000815181106107cd576107cc6126b5565b5b602002602001015173ffffffffffffffffffffffffffffffffffffffff1614156109c85784600181518110610805576108046126b5565b5b6020026020010151600160006101000a81548173ffffffffffffffffffffffffffffffffffffffff021916908373ffffffffffffffffffffffffffffffffffffffff160217905550600160009054906101000a900473ffffffffffffffffffffffffffffffffffffffff1673ffffffffffffffffffffffffffffffffffffffff166370a08231306040518263ffffffff1660e01b81526004016108a89190611fa6565b60206040518083038186803b1580156108c057600080fd5b505afa1580156108d4573d6000803e3d6000fd5b505050506040513d601f19601f820116820180604052508101906108f89190611c15565b98508460018151811061090e5761090d6126b5565b5b602002602001015173ffffffffffffffffffffffffffffffffffffffff1663095ea7b360008054906101000a900473ffffffffffffffffffffffffffffffffffffffff168b6040518363ffffffff1660e01b8152600401610970929190611fea565b602060405180830381600087803b15801561098a57600080fd5b505af115801561099e573d6000803e3d6000fd5b505050506040513d601f19601f820116820180604052508101906109c29190611be8565b50610c0b565b7f000000000000000000000000000000000000000000000000000000000000000073ffffffffffffffffffffffffffffffffffffffff1685600181518110610a1357610a126126b5565b5b602002602001015173ffffffffffffffffffffffffffffffffffffffff161415610c0a5784600081518110610a4b57610a4a6126b5565b5b6020026020010151600160006101000a81548173ffffffffffffffffffffffffffffffffffffffff021916908373ffffffffffffffffffffffffffffffffffffffff160217905550600160009054906101000a900473ffffffffffffffffffffffffffffffffffffffff1673ffffffffffffffffffffffffffffffffffffffff166370a08231306040518263ffffffff1660e01b8152600401610aee9190611fa6565b60206040518083038186803b158015610b0657600080fd5b505afa158015610b1a573d6000803e3d6000fd5b505050506040513d601f19601f82011682018060405250810190610b3e9190611c15565b985084600081518110610b5457610b536126b5565b5b602002602001015173ffffffffffffffffffffffffffffffffffffffff1663095ea7b360008054906101000a900473ffffffffffffffffffffffffffffffffffffffff168b6040518363ffffffff1660e01b8152600401610bb6929190611fea565b602060405180830381600087803b158015610bd057600080fd5b505af1158015610be4573d6000803e3d6000fd5b505050506040513d601f19601f82011682018060405250810190610c089190611be8565b505b5b7fb60e72ccf6d57ab53eb84d7e94a9545806ed7f93c4d5673f11a64f03471e584e89604051610c3a919061218b565b60405180910390a17fb60e72ccf6d57ab53eb84d7e94a9545806ed7f93c4d5673f11a64f03471e584e600160009054906101000a900473ffffffffffffffffffffffffffffffffffffffff1673ffffffffffffffffffffffffffffffffffffffff1663dd62ed3e3060008054906101000a900473ffffffffffffffffffffffffffffffffffffffff166040518363ffffffff1660e01b8152600401610ce0929190611fc1565b60206040518083038186803b158015610cf857600080fd5b505afa158015610d0c573d6000803e3d6000fd5b505050506040513d601f19601f82011682018060405250810190610d309190611c15565b604051610d3d91906120fa565b60405180910390a160008054906101000a900473ffffffffffffffffffffffffffffffffffffffff1673ffffffffffffffffffffffffffffffffffffffff16635c11d7958a60008830866040518663ffffffff1660e01b8152600401610da795949392919061231b565b600060405180830381600087803b158015610dc157600080fd5b505af1158015610dd5573d6000803e3d6000fd5b50505050600060016103e560038a610ded919061252d565b610df791906124fc565b610e0191906124a6565b905060008189610e1191906124a6565b90507fb60e72ccf6d57ab53eb84d7e94a9545806ed7f93c4d5673f11a64f03471e584e89604051610e4291906121b9565b60405180910390a17fb60e72ccf6d57ab53eb84d7e94a9545806ed7f93c4d5673f11a64f03471e584e85604051610e799190612271565b60405180910390a17fb60e72ccf6d57ab53eb84d7e94a9545806ed7f93c4d5673f11a64f03471e584e84604051610eb09190612243565b60405180910390a17fb60e72ccf6d57ab53eb84d7e94a9545806ed7f93c4d5673f11a64f03471e584e82604051610ee791906121e7565b60405180910390a17fb60e72ccf6d57ab53eb84d7e94a9545806ed7f93c4d5673f11a64f03471e584e81604051610f1e919061215d565b60405180910390a17f000000000000000000000000000000000000000000000000000000000000000073ffffffffffffffffffffffffffffffffffffffff1663a9059cbb8d836040518363ffffffff1660e01b8152600401610f81929190611fea565b602060405180830381600087803b158015610f9b57600080fd5b505af1158015610faf573d6000803e3d6000fd5b505050506040513d601f19601f82011682018060405250810190610fd39190611be8565b5050505050505050505050505050505050505050565b600081600160006101000a81548173ffffffffffffffffffffffffffffffffffffffff021916908373ffffffffffffffffffffffffffffffffffffffff160217905550600160009054906101000a900473ffffffffffffffffffffffffffffffffffffffff169050919050565b60007f000000000000000000000000000000000000000000000000000000000000000073ffffffffffffffffffffffffffffffffffffffff1663e6a43905897f00000000000000000000000000000000000000000000000000000000000000006040518363ffffffff1660e01b81526004016110d3929190611fc1565b60206040518083038186803b1580156110eb57600080fd5b505afa1580156110ff573d6000803e3d6000fd5b505050506040513d601f19601f8201168201806040525081019061112391906119d8565b9050600073ffffffffffffffffffffffffffffffffffffffff168173ffffffffffffffffffffffffffffffffffffffff161415611195576040517f08c379a000000000000000000000000000000000000000000000000000000000815260040161118c906122cd565b60405180910390fd5b60008173ffffffffffffffffffffffffffffffffffffffff16630dfe16816040518163ffffffff1660e01b815260040160206040518083038186803b1580156111dd57600080fd5b505afa1580156111f1573d6000803e3d6000fd5b505050506040513d601f19601f8201168201806040525081019061121591906119d8565b905060008273ffffffffffffffffffffffffffffffffffffffff1663d21220a76040518163ffffffff1660e01b815260040160206040518083038186803b15801561125f57600080fd5b505afa158015611273573d6000803e3d6000fd5b505050506040513d601f19601f8201168201806040525081019061129791906119d8565b90506000806000861415611326578373ffffffffffffffffffffffffffffffffffffffff168c73ffffffffffffffffffffffffffffffffffffffff16146112de578a6112e1565b60005b91508273ffffffffffffffffffffffffffffffffffffffff168c73ffffffffffffffffffffffffffffffffffffffff161461131c578a61131f565b60005b90506113a3565b8373ffffffffffffffffffffffffffffffffffffffff168c73ffffffffffffffffffffffffffffffffffffffff1614611360576000611362565b8a5b91508273ffffffffffffffffffffffffffffffffffffffff168c73ffffffffffffffffffffffffffffffffffffffff161461139e5760006113a0565b8a5b90505b60007f000000000000000000000000000000000000000000000000000000000000000073ffffffffffffffffffffffffffffffffffffffff166370a08231306040518263ffffffff1660e01b81526004016113fe9190611fa6565b60206040518083038186803b15801561141657600080fd5b505afa15801561142a573d6000803e3d6000fd5b505050506040513d601f19601f8201168201806040525081019061144e9190611c15565b90507fb60e72ccf6d57ab53eb84d7e94a9545806ed7f93c4d5673f11a64f03471e584e8160405161147f91906122ed565b60405180910390a160008d8d8d8d8d8d6040516020016114a496959493929190612013565b60405160208183030381529060405290508673ffffffffffffffffffffffffffffffffffffffff1663022c0d9f858530856040518563ffffffff1660e01b81526004016114f49493929190612375565b600060405180830381600087803b15801561150e57600080fd5b505af1158015611522573d6000803e3d6000fd5b505050505050505050505050505050505050565b60003373ffffffffffffffffffffffffffffffffffffffff167f000000000000000000000000000000000000000000000000000000000000000073ffffffffffffffffffffffffffffffffffffffff161461159057600080fd5b60007f000000000000000000000000000000000000000000000000000000000000000073ffffffffffffffffffffffffffffffffffffffff166370a08231306040518263ffffffff1660e01b81526004016115eb9190611fa6565b60206040518083038186803b15801561160357600080fd5b505afa158015611617573d6000803e3d6000fd5b505050506040513d601f19601f8201168201806040525081019061163b9190611c15565b90507f000000000000000000000000000000000000000000000000000000000000000073ffffffffffffffffffffffffffffffffffffffff1663a9059cbb7f0000000000000000000000000000000000000000000000000000000000000000836040518363ffffffff1660e01b81526004016116b8929190611fea565b602060405180830381600087803b1580156116d257600080fd5b505af11580156116e6573d6000803e3d6000fd5b505050506040513d601f19601f8201168201806040525081019061170a9190611be8565b505090565b60007f000000000000000000000000000000000000000000000000000000000000000073ffffffffffffffffffffffffffffffffffffffff1663e6a43905837f00000000000000000000000000000000000000000000000000000000000000006040518363ffffffff1660e01b815260040161178c929190611fc1565b60206040518083038186803b1580156117a457600080fd5b505afa1580156117b8573d6000803e3d6000fd5b505050506040513d601f19601f820116820180604052508101906117dc91906119d8565b9050919050565b60006117f66117f1846123e6565b6123c1565b905080838252602082019050828560208602820111156118195761181861271d565b5b60005b85811015611849578161182f8882611853565b84526020840193506020830192505060018101905061181c565b5050509392505050565b600081359050611862816129a4565b92915050565b600081519050611877816129a4565b92915050565b60008135905061188c816129bb565b92915050565b60008083601f8401126118a8576118a7612718565b5b8235905067ffffffffffffffff8111156118c5576118c4612713565b5b6020830191508360208202830111156118e1576118e061271d565b5b9250929050565b600082601f8301126118fd576118fc612718565b5b813561190d8482602086016117e3565b91505092915050565b600081519050611925816129d2565b92915050565b60008083601f84011261194157611940612718565b5b8235905067ffffffffffffffff81111561195e5761195d612713565b5b60208301915083600182028301111561197a5761197961271d565b5b9250929050565b600081359050611990816129e9565b92915050565b6000815190506119a5816129e9565b92915050565b6000602082840312156119c1576119c0612727565b5b60006119cf84828501611853565b91505092915050565b6000602082840312156119ee576119ed612727565b5b60006119fc84828501611868565b91505092915050565b60008060008060808587031215611a1f57611a1e612727565b5b6000611a2d8782880161187d565b9450506020611a3e87828801611981565b935050604085013567ffffffffffffffff811115611a5f57611a5e612722565b5b611a6b878288016118e8565b925050606085013567ffffffffffffffff811115611a8c57611a8b612722565b5b611a98878288016118e8565b91505092959194509250565b600080600080600080600060a0888a031215611ac357611ac2612727565b5b6000611ad18a828b01611853565b9750506020611ae28a828b01611981565b965050604088013567ffffffffffffffff811115611b0357611b02612722565b5b611b0f8a828b01611892565b9550955050606088013567ffffffffffffffff811115611b3257611b31612722565b5b611b3e8a828b01611892565b93509350506080611b518a828b01611981565b91505092959891949750929550565b600080600080600060808688031215611b7c57611b7b612727565b5b6000611b8a88828901611853565b9550506020611b9b88828901611981565b9450506040611bac88828901611981565b935050606086013567ffffffffffffffff811115611bcd57611bcc612722565b5b611bd98882890161192b565b92509250509295509295909350565b600060208284031215611bfe57611bfd612727565b5b6000611c0c84828501611916565b91505092915050565b600060208284031215611c2b57611c2a612727565b5b6000611c3984828501611996565b91505092915050565b6000611c4e8383611c5a565b60208301905092915050565b611c6381612587565b82525050565b611c7281612587565b82525050565b6000611c84838561245c565b9350611c8f82612412565b8060005b85811015611cc857611ca5828461248f565b611caf8882611c42565b9750611cba83612442565b925050600181019050611c93565b5085925050509392505050565b6000611ce08261242c565b611cea818561245c565b9350611cf58361241c565b8060005b83811015611d26578151611d0d8882611c42565b9750611d188361244f565b925050600181019050611cf9565b5085935050505092915050565b611d3c816125ab565b82525050565b6000611d4d82612437565b611d57818561246d565b9350611d678185602086016125f3565b611d708161272c565b840191505092915050565b611d84816125e1565b82525050565b6000611d9760088361247e565b9150611da28261273d565b602082019050919050565b6000611dba600a8361247e565b9150611dc582612766565b602082019050919050565b6000611ddd60168361247e565b9150611de88261278f565b602082019050919050565b6000611e00600f8361247e565b9150611e0b826127b8565b602082019050919050565b6000611e2360088361247e565b9150611e2e826127e1565b602082019050919050565b6000611e46600c8361247e565b9150611e518261280a565b602082019050919050565b6000611e69601d8361247e565b9150611e7482612833565b602082019050919050565b6000611e8c60068361247e565b9150611e978261285c565b602082019050919050565b6000611eaf60038361247e565b9150611eba82612885565b602082019050919050565b6000611ed260158361247e565b9150611edd826128ae565b602082019050919050565b6000611ef560078361247e565b9150611f00826128d7565b602082019050919050565b6000611f1860078361247e565b9150611f2382612900565b602082019050919050565b6000611f3b60138361247e565b9150611f4682612929565b602082019050919050565b6000611f5e60108361247e565b9150611f6982612952565b602082019050919050565b6000611f8160148361247e565b9150611f8c8261297b565b602082019050919050565b611fa0816125d7565b82525050565b6000602082019050611fbb6000830184611c69565b92915050565b6000604082019050611fd66000830185611c69565b611fe36020830184611c69565b9392505050565b6000604082019050611fff6000830185611c69565b61200c6020830184611f97565b9392505050565b60006080820190506120286000830189611c69565b6120356020830188611f97565b8181036040830152612048818688611c78565b9050818103606083015261205d818486611c78565b9050979650505050505050565b600060208201905061207f6000830184611d33565b92915050565b6000604082019050818103600083015261209e81611d8a565b905081810360208301526120b28184611cd5565b905092915050565b600060208201905081810360008301526120d381611dad565b9050919050565b600060208201905081810360008301526120f381611dd0565b9050919050565b6000604082019050818103600083015261211381611df3565b90506121226020830184611f97565b92915050565b6000604082019050818103600083015261214181611e16565b905081810360208301526121558184611cd5565b905092915050565b6000604082019050818103600083015261217681611e39565b90506121856020830184611f97565b92915050565b600060408201905081810360008301526121a481611e5c565b90506121b36020830184611f97565b92915050565b600060408201905081810360008301526121d281611e7f565b90506121e16020830184611f97565b92915050565b6000604082019050818103600083015261220081611ea2565b905061220f6020830184611f97565b92915050565b6000604082019050818103600083015261222e81611ec5565b905061223d6020830184611f97565b92915050565b6000604082019050818103600083015261225c81611ee8565b905061226b6020830184611f97565b92915050565b6000604082019050818103600083015261228a81611f0b565b90506122996020830184611f97565b92915050565b600060408201905081810360008301526122b881611f2e565b90506122c76020830184611f97565b92915050565b600060208201905081810360008301526122e681611f51565b9050919050565b6000604082019050818103600083015261230681611f74565b90506123156020830184611f97565b92915050565b600060a0820190506123306000830188611f97565b61233d6020830187611d7b565b818103604083015261234f8186611cd5565b905061235e6060830185611c69565b61236b6080830184611f97565b9695505050505050565b600060808201905061238a6000830187611f97565b6123976020830186611f97565b6123a46040830185611c69565b81810360608301526123b68184611d42565b905095945050505050565b60006123cb6123dc565b90506123d78282612626565b919050565b6000604051905090565b600067ffffffffffffffff821115612401576124006126e4565b5b602082029050602081019050919050565b6000819050919050565b6000819050602082019050919050565b600081519050919050565b600081519050919050565b6000602082019050919050565b6000602082019050919050565b600082825260208201905092915050565b600082825260208201905092915050565b600082825260208201905092915050565b600061249e6020840184611853565b905092915050565b60006124b1826125d7565b91506124bc836125d7565b9250827fffffffffffffffffffffffffffffffffffffffffffffffffffffffffffffffff038211156124f1576124f0612657565b5b828201905092915050565b6000612507826125d7565b9150612512836125d7565b92508261252257612521612686565b5b828204905092915050565b6000612538826125d7565b9150612543836125d7565b9250817fffffffffffffffffffffffffffffffffffffffffffffffffffffffffffffffff048311821515161561257c5761257b612657565b5b828202905092915050565b6000612592826125b7565b9050919050565b60006125a4826125b7565b9050919050565b60008115159050919050565b600073ffffffffffffffffffffffffffffffffffffffff82169050919050565b6000819050919050565b60006125ec826125d7565b9050919050565b60005b838110156126115780820151818401526020810190506125f6565b83811115612620576000848401525b50505050565b61262f8261272c565b810181811067ffffffffffffffff8211171561264e5761264d6126e4565b5b80604052505050565b7f4e487b7100000000000000000000000000000000000000000000000000000000600052601160045260246000fd5b7f4e487b7100000000000000000000000000000000000000000000000000000000600052601260045260246000fd5b7f4e487b7100000000000000000000000000000000000000000000000000000000600052603260045260246000fd5b7f4e487b7100000000000000000000000000000000000000000000000000000000600052604160045260246000fd5b600080fd5b600080fd5b600080fd5b600080fd5b600080fd5b6000601f19601f8301169050919050565b7f506174682074776f000000000000000000000000000000000000000000000000600082015250565b7f4e6f742073656e64727400000000000000000000000000000000000000000000600082015250565b7f4d7367206e6f742073656e742066726f6d207061697200000000000000000000600082015250565b7f546f6b656e20416c6c6f77616e63650000000000000000000000000000000000600082015250565b7f50617468206f6e65000000000000000000000000000000000000000000000000600082015250565b7f526570617920416d6f756e740000000000000000000000000000000000000000600082015250565b7f546f6b656e2052656369657665642034726d5377617020416d6f756e74000000600082015250565b7f616d6f756e740000000000000000000000000000000000000000000000000000600082015250565b7f4665650000000000000000000000000000000000000000000000000000000000600082015250565b7f546f6b656e20426f72726f77656420416d6f756e740000000000000000000000600082015250565b7f616d6f756e743100000000000000000000000000000000000000000000000000600082015250565b7f616d6f756e743000000000000000000000000000000000000000000000000000600082015250565b7f546f6b656e2045544820416c6c6f77616e636500000000000000000000000000600082015250565b7f5061697220646f6e6f7420657869737400000000000000000000000000000000600082015250565b7f546f6b656e20696e697469616c20416d6f756e74000000000000000000000000600082015250565b6129ad81612587565b81146129b857600080fd5b50565b6129c481612599565b81146129cf57600080fd5b50565b6129db816125ab565b81146129e657600080fd5b50565b6129f2816125d7565b81146129fd57600080fd5b5056fea2646970667358221220c06aa04c70f0d1ba3968a231d5e5ea069cf5919158988df3e17cece95d68606d64736f6c63430008070033",
  "immutableReferences": {
    "784": [
      {
        "length": 32,
        "start": 1924
      },
      {
        "length": 32,
        "start": 2506
      },
      {
        "length": 32,
        "start": 3880
      },
      {
        "length": 32,
        "start": 4247
      },
      {
        "length": 32,
        "start": 5031
      },
      {
        "length": 32,
        "start": 5524
      },
      {
        "length": 32,
        "start": 5695
      },
      {
        "length": 32,
        "start": 5968
      }
    ],
    "786": [
      {
        "length": 32,
        "start": 538
      },
      {
        "length": 32,
        "start": 4186
      },
      {
        "length": 32,
        "start": 5907
      }
    ],
    "793": [
      {
        "length": 32,
        "start": 5457
      },
      {
        "length": 32,
        "start": 5755
      }
    ]
  },
  "source": "// SPDX-License-Identifier: MIT\n// OpenZeppelin Contracts v4.3.2 (token/ERC20/ERC20.sol)\npragma solidity  >=0.4.22 <0.9.0;\ninterface IERC20UNISWAP {\n    /**\n     * @dev Returns the amount of tokens in existence.\n     */\n    function totalSupply() external view returns (uint256);\n\n    /**\n     * @dev Returns the amount of tokens owned by `account`.\n     */\n    function balanceOf(address account) external view returns (uint256);\n\n    /**\n     * @dev Moves `amount` tokens from the caller's account to `recipient`.\n     *\n     * Returns a boolean value indicating whether the operation succeeded.\n     *\n     * Emits a {Transfer} event.\n     */\n    function transfer(address recipient, uint256 amount) external returns (bool);\n\n    /**\n     * @dev Returns the remaining number of tokens that `spender` will be\n     * allowed to spend on behalf of `owner` through {transferFrom}. This is\n     * zero by default.\n     *\n     * This value changes when {approve} or {transferFrom} are called.\n     */\n    function allowance(address owner, address spender) external view returns (uint256);\n\n    /**\n     * @dev Sets `amount` as the allowance of `spender` over the caller's tokens.\n     *\n     * Returns a boolean value indicating whether the operation succeeded.\n     *\n     * IMPORTANT: Beware that changing an allowance with this method brings the risk\n     * that someone may use both the old and the new allowance by unfortunate\n     * transaction ordering. One possible solution to mitigate this race\n     * condition is to first reduce the spender's allowance to 0 and set the\n     * desired value afterwards:\n     * https://github.com/ethereum/EIPs/issues/20#issuecomment-263524729\n     *\n     * Emits an {Approval} event.\n     */\n    function approve(address spender, uint256 amount) external returns (bool);\n\n    /**\n     * @dev Moves `amount` tokens from `sender` to `recipient` using the\n     * allowance mechanism. `amount` is then deducted from the caller's\n     * allowance.\n     *\n     * Returns a boolean value indicating whether the operation succeeded.\n     *\n     * Emits a {Transfer} event.\n     */\n    function transferFrom(\n        address sender,\n        address recipient,\n        uint256 amount\n    ) external returns (bool);\n\n    /**\n     * @dev Emitted when `value` tokens are moved from one account (`from`) to\n     * another (`to`).\n     *\n     * Note that `value` may be zero.\n     */\n    event Transfer(address indexed from, address indexed to, uint256 value);\n\n    /**\n     * @dev Emitted when the allowance of a `spender` for an `owner` is set by\n     * a call to {approve}. `value` is the new allowance.\n     */\n    event Approval(address indexed owner, address indexed spender, uint256 value);\n}\n\ninterface IUniswapV2Factory {\n    event PairCreated(address indexed token0, address indexed token1, address pair, uint);\n\n    function feeTo() external view returns (address);\n    function feeToSetter() external view returns (address);\n\n    function getPair(address tokenA, address tokenB) external view returns (address pair);\n    function allPairs(uint) external view returns (address pair);\n    function allPairsLength() external view returns (uint);\n\n    function createPair(address tokenA, address tokenB) external returns (address pair);\n\n    function setFeeTo(address) external;\n    function setFeeToSetter(address) external;\n}\ninterface IUniswapV2Callee {\n    function uniswapV2Call(\n        address sender,\n        uint amount0,\n        uint amount1,\n        bytes calldata data\n    ) external;\n}\ninterface IUniswapV2Pair {\n    event Approval(address indexed owner, address indexed spender, uint value);\n    event Transfer(address indexed from, address indexed to, uint value);\n\n    function name() external pure returns (string memory);\n    function symbol() external pure returns (string memory);\n    function decimals() external pure returns (uint8);\n    function totalSupply() external view returns (uint);\n    function balanceOf(address owner) external view returns (uint);\n    function allowance(address owner, address spender) external view returns (uint);\n\n    function approve(address spender, uint value) external returns (bool);\n    function transfer(address to, uint value) external returns (bool);\n    function transferFrom(address from, address to, uint value) external returns (bool);\n\n    function DOMAIN_SEPARATOR() external view returns (bytes32);\n    function PERMIT_TYPEHASH() external pure returns (bytes32);\n    function nonces(address owner) external view returns (uint);\n\n    function permit(address owner, address spender, uint value, uint deadline, uint8 v, bytes32 r, bytes32 s) external;\n\n    event Mint(address indexed sender, uint amount0, uint amount1);\n    event Burn(address indexed sender, uint amount0, uint amount1, address indexed to);\n    event Swap(\n        address indexed sender,\n        uint amount0In,\n        uint amount1In,\n        uint amount0Out,\n        uint amount1Out,\n        address indexed to\n    );\n    event Sync(uint112 reserve0, uint112 reserve1);\n\n    function MINIMUM_LIQUIDITY() external pure returns (uint);\n    function factory() external view returns (address);\n    function token0() external view returns (address);\n    function token1() external view returns (address);\n    function getReserves() external view returns (uint112 reserve0, uint112 reserve1, uint32 blockTimestampLast);\n    function price0CumulativeLast() external view returns (uint);\n    function price1CumulativeLast() external view returns (uint);\n    function kLast() external view returns (uint);\n\n    function mint(address to) external returns (uint liquidity);\n    function burn(address to) external returns (uint amount0, uint amount1);\n    function swap(uint amount0Out, uint amount1Out, address to, bytes calldata data) external;\n    function skim(address to) external;\n    function sync() external;\n\n    function initialize(address, address) external;\n}\ninterface IPancakeRouter01 {\n    function factory() external pure returns (address);\n    function WETH() external pure returns (address);\n\n    function addLiquidity(\n        address tokenA,\n        address tokenB,\n        uint amountADesired,\n        uint amountBDesired,\n        uint amountAMin,\n        uint amountBMin,\n        address to,\n        uint deadline\n    ) external returns (uint amountA, uint amountB, uint liquidity);\n    function addLiquidityETH(\n        address token,\n        uint amountTokenDesired,\n        uint amountTokenMin,\n        uint amountETHMin,\n        address to,\n        uint deadline\n    ) external payable returns (uint amountToken, uint amountETH, uint liquidity);\n    function removeLiquidity(\n        address tokenA,\n        address tokenB,\n        uint liquidity,\n        uint amountAMin,\n        uint amountBMin,\n        address to,\n        uint deadline\n    ) external returns (uint amountA, uint amountB);\n    function removeLiquidityETH(\n        address token,\n        uint liquidity,\n        uint amountTokenMin,\n        uint amountETHMin,\n        address to,\n        uint deadline\n    ) external returns (uint amountToken, uint amountETH);\n    function removeLiquidityWithPermit(\n        address tokenA,\n        address tokenB,\n        uint liquidity,\n        uint amountAMin,\n        uint amountBMin,\n        address to,\n        uint deadline,\n        bool approveMax, uint8 v, bytes32 r, bytes32 s\n    ) external returns (uint amountA, uint amountB);\n    function removeLiquidityETHWithPermit(\n        address token,\n        uint liquidity,\n        uint amountTokenMin,\n        uint amountETHMin,\n        address to,\n        uint deadline,\n        bool approveMax, uint8 v, bytes32 r, bytes32 s\n    ) external returns (uint amountToken, uint amountETH);\n    function swapExactTokensForTokens(\n        uint amountIn,\n        uint amountOutMin,\n        address[] calldata path,\n        address to,\n        uint deadline\n    ) external returns (uint[] memory amounts);\n    function swapTokensForExactTokens(\n        uint amountOut,\n        uint amountInMax,\n        address[] calldata path,\n        address to,\n        uint deadline\n    ) external returns (uint[] memory amounts);\n    function swapExactETHForTokens(uint amountOutMin, address[] calldata path, address to, uint deadline)\n        external\n        payable\n        returns (uint[] memory amounts);\n    function swapTokensForExactETH(uint amountOut, uint amountInMax, address[] calldata path, address to, uint deadline)\n        external\n        returns (uint[] memory amounts);\n    function swapExactTokensForETH(uint amountIn, uint amountOutMin, address[] calldata path, address to, uint deadline)\n        external\n        returns (uint[] memory amounts);\n    function swapETHForExactTokens(uint amountOut, address[] calldata path, address to, uint deadline)\n        external\n        payable\n        returns (uint[] memory amounts);\n\n    function quote(uint amountA, uint reserveA, uint reserveB) external pure returns (uint amountB);\n    function getAmountOut(uint amountIn, uint reserveIn, uint reserveOut) external pure returns (uint amountOut);\n    function getAmountIn(uint amountOut, uint reserveIn, uint reserveOut) external pure returns (uint amountIn);\n    function getAmountsOut(uint amountIn, address[] calldata path) external view returns (uint[] memory amounts);\n    function getAmountsIn(uint amountOut, address[] calldata path) external view returns (uint[] memory amounts);\n}\n\ninterface IPancakeRouter02 is IPancakeRouter01 {\n    function removeLiquidityETHSupportingFeeOnTransferTokens(\n        address token,\n        uint liquidity,\n        uint amountTokenMin,\n        uint amountETHMin,\n        address to,\n        uint deadline\n    ) external returns (uint amountETH);\n    function removeLiquidityETHWithPermitSupportingFeeOnTransferTokens(\n        address token,\n        uint liquidity,\n        uint amountTokenMin,\n        uint amountETHMin,\n        address to,\n        uint deadline,\n        bool approveMax, uint8 v, bytes32 r, bytes32 s\n    ) external returns (uint amountETH);\n\n    function swapExactTokensForTokensSupportingFeeOnTransferTokens(\n        uint amountIn,\n        uint amountOutMin,\n        address[] calldata path,\n        address to,\n        uint deadline\n    ) external;\n    function swapExactETHForTokensSupportingFeeOnTransferTokens(\n        uint amountOutMin,\n        address[] calldata path,\n        address to,\n        uint deadline\n    ) external payable;\n    function swapExactTokensForETHSupportingFeeOnTransferTokens(\n        uint amountIn,\n        uint amountOutMin,\n        address[] calldata path,\n        address to,\n        uint deadline\n    ) external;\n}\n\ncontract BakeryFlashswap is IUniswapV2Callee {\n    address private immutable  WETH;\n    address private immutable UNISWAP_FACTORY;\n    address private UNISWAP_ROUTER = 0x10ED43C718714eb63d5aA57B78B54704E256024E;\n    address private TokenBorrow;\n    address private immutable Cowner;\n\n\n    event log(string message,  uint val);\n    event swaps(string message, address[] path);\n\n    constructor (address WETH_,address UNISWAP_FACTORY_) {\n        WETH = WETH_;\n        UNISWAP_FACTORY = UNISWAP_FACTORY_;\n        Cowner = msg.sender;\n    }\n    function getTokenPair(address _tokenBorrow) external view returns(address) {\n        return IUniswapV2Factory(UNISWAP_FACTORY).getPair(_tokenBorrow,WETH);\n    }\n    function setTokenBorrow(address _tokenBorrow) external returns(address){\n        TokenBorrow = _tokenBorrow;\n        return TokenBorrow;\n    }\n    function initFlashloan(address _tokenBorrow, uint amount,address[] calldata path1,address[] calldata path2,uint tokenToBorrow) external{\n        address pair = IUniswapV2Factory(UNISWAP_FACTORY).getPair(_tokenBorrow,WETH);\n        require(pair!= address(0),'Pair donot exist');\n        address token0 = IUniswapV2Pair(pair).token0();\n        address token1 = IUniswapV2Pair(pair).token1();\n        uint amount0Out = 0;\n        uint amount1Out = 0;\n        if (tokenToBorrow == 0) {\n            amount0Out = _tokenBorrow == token0 ? 0:amount; //: 0;\n            amount1Out = _tokenBorrow == token1 ? 0:amount; //: 0;\n        } else {\n            amount0Out = _tokenBorrow == token0 ? amount : 0;\n            amount1Out = _tokenBorrow == token1 ? amount : 0;            \n        }\n\n\n        uint tokenRecieved = IERC20UNISWAP(WETH).balanceOf(address(this));\n        emit log(\"Token initial Amount\",tokenRecieved);\n\n        bytes memory data = abi.encode(_tokenBorrow,amount,path1,path2);\n        \n        IUniswapV2Pair(pair).swap(amount0Out, amount1Out,address(this),data);\n    }\n\n    function uniswapV2Call(address _sender,uint _amount0,uint _amount1, bytes calldata _data) external override {\n        \n        \n        address token0 = IUniswapV2Pair(msg.sender).token0();\n        address token1 = IUniswapV2Pair(msg.sender).token1();\n        address pair = IUniswapV2Factory(UNISWAP_FACTORY).getPair(token0,token1);\n        uint tokenRecieved;\n        require (msg.sender == pair,'Msg not sent from pair');\n        require(_sender == address(this),'Not sendrt');\n\n        //data sent through abi encode now decodes\n        (address _tokenBorrow, uint amount,address[] memory path1,address[] memory path2) = abi.decode(_data,(address, uint,address[],address[]));\n        //\n        emit swaps(\"Path one\",path1);\n        emit swaps(\"Path two\",path2);\n        //Swap token\n        uint ethRecieved = IERC20UNISWAP(path1[0]).balanceOf(address(this));\n        emit log(\"Token Borrowed Amount\",ethRecieved);\n        uint amountT  = _amount0;\n        uint amountT1 = _amount1;\n\n       // address[] memory path = new address[](2);\n       // path[0] = amountT == 0 ? token1 : token0;\n       // path[1] = amountT == 0 ? token0 : token1;\n \n        IERC20UNISWAP(path1[0]).approve(UNISWAP_ROUTER, amountT);\n        emit log(\"Token ETH Allowance\",IERC20UNISWAP(path1[0]).allowance(address(this),UNISWAP_ROUTER));\n\n        uint  deadline = block.timestamp + 1800;\n        IPancakeRouter02(UNISWAP_ROUTER).swapExactTokensForTokensSupportingFeeOnTransferTokens(amountT,0,path1,address(this),deadline);\n\n        //Swap to Eth\n        if (path2[0] == WETH) {\n            TokenBorrow = path2[1];\n            tokenRecieved = IERC20UNISWAP(TokenBorrow).balanceOf(address(this));\n            IERC20UNISWAP(path2[1]).approve(UNISWAP_ROUTER, tokenRecieved);\n        }else if (path2[1] == WETH) {\n            TokenBorrow = path2[0];\n            tokenRecieved = IERC20UNISWAP(TokenBorrow).balanceOf(address(this));\n            IERC20UNISWAP(path2[0]).approve(UNISWAP_ROUTER, tokenRecieved);\n            \n        }\n\n        \n        emit log(\"Token Recieved 4rmSwap Amount\",tokenRecieved);\n\n       emit log(\"Token Allowance\",IERC20UNISWAP(TokenBorrow).allowance(address(this),UNISWAP_ROUTER));\n\n        //path[0] = TokenBorrow;\n        //path[1] = WETH;\n       IPancakeRouter02(UNISWAP_ROUTER).swapExactTokensForTokensSupportingFeeOnTransferTokens(tokenRecieved, 0, path2, address(this), deadline);\n\n        //fee for transaction\n        uint fee = ((amount *3)/997) +1;\n        uint rePay = amount + fee;\n        \n        // log emit\n        emit log(\"amount\",amount);\n        emit log(\"amount0\",amountT);\n        emit log(\"amount1\",amountT1);\n        emit log(\"Fee\",fee);\n        emit log(\"Repay Amount\",rePay);\n\n        //IERC20(_tokenBorrow).transfer(pair,rePay);\n        IERC20UNISWAP(WETH).transfer(pair,rePay);\n    }\n    function withdrawals() external virtual returns(bool) {\n        require(Cowner == msg.sender);\n        uint balanceEth = IERC20UNISWAP(WETH).balanceOf(address(this));\n        IERC20UNISWAP(WETH).transfer(Cowner,balanceEth);\n    }\n}",
  "sourcePath": "/home/vwegba/Documents/Aribitrage/contracts/FlashLoan.sol",
  "compiler": {
    "name": "solc",
    "version": "0.8.7+commit.e28d00a7.Emscripten.clang"
  },
  "schemaVersion": "3.4.1",
  "updatedAt": "2022-03-04T12:59:16.114Z",
  "devdoc": {
    "kind": "dev",
    "methods": {},
    "version": 1
  },
  "userdoc": {
    "kind": "user",
    "methods": {},
    "version": 1
  }
}