{
  "contractName": "WETH",
  "abi": [
    {
      "inputs": [],
      "name": "deposit",
      "outputs": [],
      "stateMutability": "payable",
      "type": "function"
    },
    {
      "inputs": [],
      "name": "totalSupply",
      "outputs": [
        {
          "internalType": "uint256",
          "name": "",
          "type": "uint256"
        }
      ],
      "stateMutability": "view",
      "type": "function"
    },
    {
      "inputs": [
        {
          "internalType": "address",
          "name": "to",
          "type": "address"
        },
        {
          "internalType": "uint256",
          "name": "value",
          "type": "uint256"
        }
      ],
      "name": "transfer",
      "outputs": [
        {
          "internalType": "bool",
          "name": "",
          "type": "bool"
        }
      ],
      "stateMutability": "nonpayable",
      "type": "function"
    },
    {
      "inputs": [
        {
          "internalType": "uint256",
          "name": "",
          "type": "uint256"
        }
      ],
      "name": "withdraw",
      "outputs": [],
      "stateMutability": "nonpayable",
      "type": "function"
    },
    {
      "inputs": [
        {
          "internalType": "address",
          "name": "account",
          "type": "address"
        }
      ],
      "name": "balanceOf",
      "outputs": [
        {
          "internalType": "uint256",
          "name": "",
          "type": "uint256"
        }
      ],
      "stateMutability": "view",
      "type": "function"
    }
  ],
  "bytecode": "0x608060405234801561001057600080fd5b50610309806100206000396000f3fe60806040526004361061004a5760003560e01c806318160ddd1461004f5780632e1a7d4d1461007a57806370a08231146100a3578063a9059cbb146100e0578063d0e30db01461011d575b600080fd5b34801561005b57600080fd5b50610064610127565b604051610071919061023d565b60405180910390f35b34801561008657600080fd5b506100a1600480360381019061009c91906101d7565b61012c565b005b3480156100af57600080fd5b506100ca60048036038101906100c5919061016a565b61012f565b6040516100d7919061023d565b60405180910390f35b3480156100ec57600080fd5b5061010760048036038101906101029190610197565b610136565b6040516101149190610222565b60405180910390f35b61012561013e565b005b600090565b50565b6000919050565b600092915050565b565b60008135905061014f816102a5565b92915050565b600081359050610164816102bc565b92915050565b6000602082840312156101805761017f6102a0565b5b600061018e84828501610140565b91505092915050565b600080604083850312156101ae576101ad6102a0565b5b60006101bc85828601610140565b92505060206101cd85828601610155565b9150509250929050565b6000602082840312156101ed576101ec6102a0565b5b60006101fb84828501610155565b91505092915050565b61020d8161026a565b82525050565b61021c81610296565b82525050565b60006020820190506102376000830184610204565b92915050565b60006020820190506102526000830184610213565b92915050565b600061026382610276565b9050919050565b60008115159050919050565b600073ffffffffffffffffffffffffffffffffffffffff82169050919050565b6000819050919050565b600080fd5b6102ae81610258565b81146102b957600080fd5b50565b6102c581610296565b81146102d057600080fd5b5056fea26469706673582212207a23789e6d85b74025c3535b3a0492a296283950072f1e95a5f2da12f16dbea864736f6c63430008070033",
  "immutableReferences": {},
  "source": "// SPDX-License-Identifier: MIT\n// OpenZeppelin Contracts v4.3.2 (token/ERC20/ERC20.sol)\npragma solidity  >=0.4.22 <0.9.0;\n\n\ncontract WETH {\n    function deposit() external payable{}\n    function totalSupply() public view returns (uint) {}\n    function transfer(address to, uint value) external returns (bool){}\n    function withdraw(uint) external{}\n    function balanceOf(address account) public view virtual  returns (uint256) {}\n}",
  "sourcePath": "/home/vwegba/Documents/Aribitrage/contracts/WETH.sol",
  "compiler": {
    "name": "solc",
    "version": "0.8.7+commit.e28d00a7.Emscripten.clang"
  },
  "schemaVersion": "3.4.1",
  "updatedAt": "2022-03-04T12:01:33.505Z",
  "devdoc": {
    "kind": "dev",
    "methods": {},
    "version": 1
  },
  "userdoc": {
    "kind": "user",
    "methods": {},
    "version": 1
  }
}